{"abi":[{"type":"constructor","inputs":[{"name":"_owner","type":"address","internalType":"address"},{"name":"_player1","type":"address","internalType":"address"},{"name":"_name1","type":"string","internalType":"string"},{"name":"_player2","type":"address","internalType":"address"},{"name":"_name2","type":"string","internalType":"string"}],"stateMutability":"payable"},{"type":"function","name":"P1moves","inputs":[],"outputs":[{"name":"move1","type":"uint8","internalType":"uint8"},{"name":"move2","type":"uint8","internalType":"uint8"},{"name":"move3","type":"uint8","internalType":"uint8"},{"name":"move4","type":"uint8","internalType":"uint8"},{"name":"move5","type":"uint8","internalType":"uint8"},{"name":"move6","type":"uint8","internalType":"uint8"}],"stateMutability":"view"},{"type":"function","name":"P2moves","inputs":[],"outputs":[{"name":"move1","type":"uint8","internalType":"uint8"},{"name":"move2","type":"uint8","internalType":"uint8"},{"name":"move3","type":"uint8","internalType":"uint8"},{"name":"move4","type":"uint8","internalType":"uint8"},{"name":"move5","type":"uint8","internalType":"uint8"},{"name":"move6","type":"uint8","internalType":"uint8"}],"stateMutability":"view"},{"type":"function","name":"PerformMoves","inputs":[{"name":"_move1","type":"uint8","internalType":"uint8"},{"name":"_move2","type":"uint8","internalType":"uint8"},{"name":"_move3","type":"uint8","internalType":"uint8"},{"name":"_move4","type":"uint8","internalType":"uint8"},{"name":"_move5","type":"uint8","internalType":"uint8"}],"outputs":[],"stateMutability":"nonpayable"},{"type":"function","name":"calculateResult","inputs":[],"outputs":[],"stateMutability":"nonpayable"},{"type":"function","name":"gameCount","inputs":[],"outputs":[{"name":"","type":"uint256","internalType":"uint256"}],"stateMutability":"view"},{"type":"function","name":"gameState","inputs":[],"outputs":[{"name":"","type":"uint8","internalType":"enum PlayGround.Gamestate"}],"stateMutability":"view"},{"type":"function","name":"moveSelectionDuration","inputs":[],"outputs":[{"name":"","type":"uint256","internalType":"uint256"}],"stateMutability":"view"},{"type":"function","name":"moveSelectionStartTime","inputs":[],"outputs":[{"name":"","type":"uint256","internalType":"uint256"}],"stateMutability":"view"},{"type":"function","name":"owner","inputs":[],"outputs":[{"name":"","type":"address","internalType":"address"}],"stateMutability":"view"},{"type":"function","name":"player1","inputs":[],"outputs":[{"name":"playerAddress","type":"address","internalType":"address"},{"name":"name","type":"string","internalType":"string"},{"name":"health","type":"uint256","internalType":"uint256"},{"name":"basicAttackCount","type":"uint8","internalType":"uint8"},{"name":"mediumAttackCount","type":"uint8","internalType":"uint8"},{"name":"specialAttackCount","type":"uint8","internalType":"uint8"}],"stateMutability":"view"},{"type":"function","name":"player1Moved","inputs":[],"outputs":[{"name":"","type":"bool","internalType":"bool"}],"stateMutability":"view"},{"type":"function","name":"player2","inputs":[],"outputs":[{"name":"playerAddress","type":"address","internalType":"address"},{"name":"name","type":"string","internalType":"string"},{"name":"health","type":"uint256","internalType":"uint256"},{"name":"basicAttackCount","type":"uint8","internalType":"uint8"},{"name":"mediumAttackCount","type":"uint8","internalType":"uint8"},{"name":"specialAttackCount","type":"uint8","internalType":"uint8"}],"stateMutability":"view"},{"type":"function","name":"player2Moved","inputs":[],"outputs":[{"name":"","type":"bool","internalType":"bool"}],"stateMutability":"view"}],"bytecode":{"object":"0x60806040526005600155601e6003555f600460016101000a81548160ff021916908360ff1602179055505f600460026101000a81548160ff021916908360ff1602179055505f600f5f6101000a81548160ff0219169083151502179055505f600f60016101000a81548160ff02191690831515021790555060405161359d38038061359d833981810160405281019061009891906104fa565b845f5f6101000a81548173ffffffffffffffffffffffffffffffffffffffff021916908373ffffffffffffffffffffffffffffffffffffffff160217905550600a426100e491906105df565b6002819055506040518060c001604052808573ffffffffffffffffffffffffffffffffffffffff168152602001848152602001600a8152602001600360ff168152602001600260ff168152602001600160ff1681525060055f820151815f015f6101000a81548173ffffffffffffffffffffffffffffffffffffffff021916908373ffffffffffffffffffffffffffffffffffffffff16021790555060208201518160010190816101959190610819565b50604082015181600201556060820151816003015f6101000a81548160ff021916908360ff16021790555060808201518160030160016101000a81548160ff021916908360ff16021790555060a08201518160030160026101000a81548160ff021916908360ff1602179055509050506040518060c001604052808373ffffffffffffffffffffffffffffffffffffffff168152602001828152602001600a8152602001600360ff168152602001600260ff168152602001600160ff1681525060095f820151815f015f6101000a81548173ffffffffffffffffffffffffffffffffffffffff021916908373ffffffffffffffffffffffffffffffffffffffff16021790555060208201518160010190816102b09190610819565b50604082015181600201556060820151816003015f6101000a81548160ff021916908360ff16021790555060808201518160030160016101000a81548160ff021916908360ff16021790555060a08201518160030160026101000a81548160ff021916908360ff1602179055509050505f60045f6101000a81548160ff02191690836001811115610344576103436108e8565b5b02179055505050505050610915565b5f604051905090565b5f5ffd5b5f5ffd5b5f73ffffffffffffffffffffffffffffffffffffffff82169050919050565b5f61038d82610364565b9050919050565b61039d81610383565b81146103a7575f5ffd5b50565b5f815190506103b881610394565b92915050565b5f5ffd5b5f5ffd5b5f601f19601f8301169050919050565b7f4e487b71000000000000000000000000000000000000000000000000000000005f52604160045260245ffd5b61040c826103c6565b810181811067ffffffffffffffff8211171561042b5761042a6103d6565b5b80604052505050565b5f61043d610353565b90506104498282610403565b919050565b5f67ffffffffffffffff821115610468576104676103d6565b5b610471826103c6565b9050602081019050919050565b8281835e5f83830152505050565b5f61049e6104998461044e565b610434565b9050828152602081018484840111156104ba576104b96103c2565b5b6104c584828561047e565b509392505050565b5f82601f8301126104e1576104e06103be565b5b81516104f184826020860161048c565b91505092915050565b5f5f5f5f5f60a086880312156105135761051261035c565b5b5f610520888289016103aa565b9550506020610531888289016103aa565b945050604086015167ffffffffffffffff81111561055257610551610360565b5b61055e888289016104cd565b935050606061056f888289016103aa565b925050608086015167ffffffffffffffff8111156105905761058f610360565b5b61059c888289016104cd565b9150509295509295909350565b5f819050919050565b7f4e487b71000000000000000000000000000000000000000000000000000000005f52601160045260245ffd5b5f6105e9826105a9565b91506105f4836105a9565b925082820190508082111561060c5761060b6105b2565b5b92915050565b5f81519050919050565b7f4e487b71000000000000000000000000000000000000000000000000000000005f52602260045260245ffd5b5f600282049050600182168061066057607f821691505b6020821081036106735761067261061c565b5b50919050565b5f819050815f5260205f209050919050565b5f6020601f8301049050919050565b5f82821b905092915050565b5f600883026106d57fffffffffffffffffffffffffffffffffffffffffffffffffffffffffffffffff8261069a565b6106df868361069a565b95508019841693508086168417925050509392505050565b5f819050919050565b5f61071a610715610710846105a9565b6106f7565b6105a9565b9050919050565b5f819050919050565b61073383610700565b61074761073f82610721565b8484546106a6565b825550505050565b5f5f905090565b61075e61074f565b61076981848461072a565b505050565b5b8181101561078c576107815f82610756565b60018101905061076f565b5050565b601f8211156107d1576107a281610679565b6107ab8461068b565b810160208510156107ba578190505b6107ce6107c68561068b565b83018261076e565b50505b505050565b5f82821c905092915050565b5f6107f15f19846008026107d6565b1980831691505092915050565b5f61080983836107e2565b9150826002028217905092915050565b61082282610612565b67ffffffffffffffff81111561083b5761083a6103d6565b5b6108458254610649565b610850828285610790565b5f60209050601f831160018114610881575f841561086f578287015190505b61087985826107fe565b8655506108e0565b601f19841661088f86610679565b5f5b828110156108b657848901518255600182019150602085019450602081019050610891565b868310156108d357848901516108cf601f8916826107e2565b8355505b6001600288020188555050505b505050505050565b7f4e487b71000000000000000000000000000000000000000000000000000000005f52602160045260245ffd5b612c7b806109225f395ff3fe608060405234801561000f575f5ffd5b50600436106100cd575f3560e01c80636e008b351161008a578063d1f9c24d11610064578063d1f9c24d146101d8578063d30895e4146101f6578063e95cc91314610219578063f39b734c14610237576100cd565b80636e008b351461018d5780638c219708146101975780638da5cb5b146101ba576100cd565b80630bdd347c146100d157806323003af8146100ef5780632da112e91461011257806349426d321461012e5780634d1975b41461014c57806359a5f12d1461016a575b5f5ffd5b6100d9610255565b6040516100e691906123e4565b60405180910390f35b6100f7610268565b60405161010996959493929190612418565b60405180910390f35b61012c600480360381019061012791906124a5565b6102d9565b005b610136610bb1565b6040516101439190612534565b60405180910390f35b610154610bb7565b6040516101619190612534565b60405180910390f35b610172610bbd565b604051610184969594939291906125fc565b60405180910390f35b610195610cb1565b005b61019f611d39565b6040516101b196959493929190612418565b60405180910390f35b6101c2611daa565b6040516101cf9190612662565b60405180910390f35b6101e0611dce565b6040516101ed91906126ee565b60405180910390f35b6101fe611de0565b604051610210969594939291906125fc565b60405180910390f35b610221611ed4565b60405161022e91906123e4565b60405180910390f35b61023f611ee6565b60405161024c9190612534565b60405180910390f35b600f60019054906101000a900460ff1681565b600d805f015f9054906101000a900460ff1690805f0160019054906101000a900460ff1690805f0160029054906101000a900460ff1690805f0160039054906101000a900460ff1690805f0160049054906101000a900460ff1690805f0160059054906101000a900460ff16905086565b5f60018111156102ec576102eb61267b565b5b60045f9054906101000a900460ff16600181111561030d5761030c61267b565b5b1461034d576040517f08c379a000000000000000000000000000000000000000000000000000000000815260040161034490612751565b60405180910390fd5b60055f015f9054906101000a900473ffffffffffffffffffffffffffffffffffffffff1673ffffffffffffffffffffffffffffffffffffffff163373ffffffffffffffffffffffffffffffffffffffff1614806103f8575060095f015f9054906101000a900473ffffffffffffffffffffffffffffffffffffffff1673ffffffffffffffffffffffffffffffffffffffff163373ffffffffffffffffffffffffffffffffffffffff16145b610437576040517f08c379a000000000000000000000000000000000000000000000000000000000815260040161042e906127df565b60405180910390fd5b600354600254610447919061282a565b421115610489576040517f08c379a0000000000000000000000000000000000000000000000000000000008152600401610480906128a7565b60405180910390fd5b60025442116104cd576040517f08c379a00000000000000000000000000000000000000000000000000000000081526004016104c49061290f565b60405180910390fd5b5f60038260ff16146104df575f6104e2565b60015b60038460ff16146104f3575f6104f6565b60015b60038660ff1614610507575f61050a565b60015b60038860ff161461051b575f61051e565b60015b60038a60ff161461052f575f610532565b60015b61053c919061292d565b610546919061292d565b610550919061292d565b61055a919061292d565b90505f60048360ff161461056e575f610571565b60015b60048560ff1614610582575f610585565b60015b60048760ff1614610596575f610599565b60015b60048960ff16146105aa575f6105ad565b60015b60048b60ff16146105be575f6105c1565b60015b6105cb919061292d565b6105d5919061292d565b6105df919061292d565b6105e9919061292d565b90505f60058460ff16146105fd575f610600565b60015b60058660ff1614610611575f610614565b60015b60058860ff1614610625575f610628565b60015b60058a60ff1614610639575f61063c565b60015b60058c60ff161461064d575f610650565b60015b61065a919061292d565b610664919061292d565b61066e919061292d565b610678919061292d565b905060055f015f9054906101000a900473ffffffffffffffffffffffffffffffffffffffff1673ffffffffffffffffffffffffffffffffffffffff163373ffffffffffffffffffffffffffffffffffffffff160361093d5760056003015f9054906101000a900460ff1660ff168360ff161115801561070f5750600560030160019054906101000a900460ff1660ff168260ff1611155b80156107335750600560030160029054906101000a900460ff1660ff168160ff1611155b610772576040517f08c379a0000000000000000000000000000000000000000000000000000000008152600401610769906129ab565b60405180910390fd5b6040518060c001604052808960ff1681526020018860ff1681526020018760ff1681526020018660ff1681526020018560ff1681526020015f60ff16815250600d5f820151815f015f6101000a81548160ff021916908360ff1602179055506020820151815f0160016101000a81548160ff021916908360ff1602179055506040820151815f0160026101000a81548160ff021916908360ff1602179055506060820151815f0160036101000a81548160ff021916908360ff1602179055506080820151815f0160046101000a81548160ff021916908360ff16021790555060a0820151815f0160056101000a81548160ff021916908360ff1602179055509050508260056003015f8282829054906101000a900460ff1661089491906129c9565b92506101000a81548160ff021916908360ff16021790555081600560030160018282829054906101000a900460ff166108cd91906129c9565b92506101000a81548160ff021916908360ff16021790555080600560030160028282829054906101000a900460ff1661090691906129c9565b92506101000a81548160ff021916908360ff1602179055506001600f5f6101000a81548160ff021916908315150217905550610ba7565b60096003015f9054906101000a900460ff1660ff168360ff161115801561097c5750600960030160019054906101000a900460ff1660ff168260ff1611155b80156109a05750600960030160029054906101000a900460ff1660ff168160ff1611155b6109df576040517f08c379a00000000000000000000000000000000000000000000000000000000081526004016109d6906129ab565b60405180910390fd5b6040518060c001604052808960ff1681526020018860ff1681526020018760ff1681526020018660ff1681526020018560ff1681526020015f60ff16815250600e5f820151815f015f6101000a81548160ff021916908360ff1602179055506020820151815f0160016101000a81548160ff021916908360ff1602179055506040820151815f0160026101000a81548160ff021916908360ff1602179055506060820151815f0160036101000a81548160ff021916908360ff1602179055506080820151815f0160046101000a81548160ff021916908360ff16021790555060a0820151815f0160056101000a81548160ff021916908360ff1602179055509050508260096003015f8282829054906101000a900460ff16610b0191906129c9565b92506101000a81548160ff021916908360ff16021790555081600960030160018282829054906101000a900460ff16610b3a91906129c9565b92506101000a81548160ff021916908360ff16021790555080600960030160028282829054906101000a900460ff16610b7391906129c9565b92506101000a81548160ff021916908360ff1602179055506001600f60016101000a81548160ff0219169083151502179055505b5050505050505050565b60025481565b60015481565b6009805f015f9054906101000a900473ffffffffffffffffffffffffffffffffffffffff1690806001018054610bf290612a2a565b80601f0160208091040260200160405190810160405280929190818152602001828054610c1e90612a2a565b8015610c695780601f10610c4057610100808354040283529160200191610c69565b820191905f5260205f20905b815481529060010190602001808311610c4c57829003601f168201915b505050505090806002015490806003015f9054906101000a900460ff16908060030160019054906101000a900460ff16908060030160029054906101000a900460ff16905086565b5f6001811115610cc457610cc361267b565b5b60045f9054906101000a900460ff166001811115610ce557610ce461267b565b5b14610d25576040517f08c379a0000000000000000000000000000000000000000000000000000000008152600401610d1c90612751565b60405180910390fd5b600354600254610d35919061282a565b4211610d76576040517f08c379a0000000000000000000000000000000000000000000000000000000008152600401610d6d90612aca565b60405180910390fd5b5f600f5f6101000a81548160ff0219169083151502179055505f600f60016101000a81548160ff02191690831515021790555060015f815480929190610dbb90612ae8565b91905055505f600667ffffffffffffffff811115610ddc57610ddb612b0f565b5b604051908082528060200260200182016040528015610e0a5781602001602082028036833780820191505090505b5090505f600667ffffffffffffffff811115610e2957610e28612b0f565b5b604051908082528060200260200182016040528015610e575781602001602082028036833780820191505090505b5090505f5f90505b60068110156111cb575f610f26600d6040518060c00160405290815f82015f9054906101000a900460ff1660ff1660ff1681526020015f820160019054906101000a900460ff1660ff1660ff1681526020015f820160029054906101000a900460ff1660ff1660ff1681526020015f820160039054906101000a900460ff1660ff1660ff1681526020015f820160049054906101000a900460ff1660ff1660ff1681526020015f820160059054906101000a900460ff1660ff1660ff168152505083611eec565b90505f610fe6600e6040518060c00160405290815f82015f9054906101000a900460ff1660ff1660ff1681526020015f820160019054906101000a900460ff1660ff1660ff1681526020015f820160029054906101000a900460ff1660ff1660ff1681526020015f820160039054906101000a900460ff1660ff1660ff1681526020015f820160049054906101000a900460ff1660ff1660ff1681526020015f820160059054906101000a900460ff1660ff1660ff168152505084611eec565b90505f8260ff160361102e57600460019054906101000a900460ff1685848151811061101557611014612b3c565b5b602002602001019060ff16908160ff168152505061109d565b60018260ff160361106757600185848151811061104e5761104d612b3c565b5b602002602001019060ff16908160ff168152505061109c565b60028260ff160361109b575f85848151811061108657611085612b3c565b5b602002602001019060ff16908160ff16815250505b5b5b5f8160ff16036110e357600460029054906101000a900460ff168484815181106110ca576110c9612b3c565b5b602002602001019060ff16908160ff1681525050611152565b60018160ff160361111c57600184848151811061110357611102612b3c565b5b602002602001019060ff16908160ff1681525050611151565b60028160ff1603611150575f84848151811061113b5761113a612b3c565b5b602002602001019060ff16908160ff16815250505b5b5b84838151811061116557611164612b3c565b5b6020026020010151600460016101000a81548160ff021916908360ff16021790555083838151811061119a57611199612b3c565b5b6020026020010151600460026101000a81548160ff021916908360ff16021790555050508080600101915050610e5f565b505f5f90505f5f90505f5f90505b6005811015611a4d575f6112a0600d6040518060c00160405290815f82015f9054906101000a900460ff1660ff1660ff1681526020015f820160019054906101000a900460ff1660ff1660ff1681526020015f820160029054906101000a900460ff1660ff1660ff1681526020015f820160039054906101000a900460ff1660ff1660ff1681526020015f820160049054906101000a900460ff1660ff1660ff1681526020015f820160059054906101000a900460ff1660ff1660ff168152505083611eec565b90505f611360600e6040518060c00160405290815f82015f9054906101000a900460ff1660ff1660ff1681526020015f820160019054906101000a900460ff1660ff1660ff1681526020015f820160029054906101000a900460ff1660ff1660ff1681526020015f820160039054906101000a900460ff1660ff1660ff1681526020015f820160049054906101000a900460ff1660ff1660ff1681526020015f820160059054906101000a900460ff1660ff1660ff168152505084611eec565b905060038260ff16101580156113bb57508560018461137f919061282a565b815181106113905761138f612b3c565b5b602002602001015160ff168784815181106113ae576113ad612b3c565b5b602002602001015160ff16145b156116d0575f6002836113ce91906129c9565b9050600361148f600e6040518060c00160405290815f82015f9054906101000a900460ff1660ff1660ff1681526020015f820160019054906101000a900460ff1660ff1660ff1681526020015f820160029054906101000a900460ff1660ff1660ff1681526020015f820160039054906101000a900460ff1660ff1660ff1681526020015f820160049054906101000a900460ff1660ff1660ff1681526020015f820160059054906101000a900460ff1660ff1660ff168152505086611eec565b60ff16101580156114d957508684815181106114ae576114ad612b3c565b5b602002602001015160ff168885815181106114cc576114cb612b3c565b5b602002602001015160ff16145b156114f9576002826114eb91906129c9565b816114f691906129c9565b90505b60036115c4600e6040518060c00160405290815f82015f9054906101000a900460ff1660ff1660ff1681526020015f820160019054906101000a900460ff1660ff1660ff1681526020015f820160029054906101000a900460ff1660ff1660ff1681526020015f820160039054906101000a900460ff1660ff1660ff1681526020015f820160049054906101000a900460ff1660ff1660ff1681526020015f820160059054906101000a900460ff1660ff1660ff16815250506001876115bf919061282a565b611eec565b60ff16106116af576002611697600e6040518060c00160405290815f82015f9054906101000a900460ff1660ff1660ff1681526020015f820160019054906101000a900460ff1660ff1660ff1681526020015f820160029054906101000a900460ff1660ff1660ff1681526020015f820160039054906101000a900460ff1660ff1660ff1681526020015f820160049054906101000a900460ff1660ff1660ff1681526020015f820160059054906101000a900460ff1660ff1660ff1681525050600187611692919061282a565b611eec565b6116a191906129c9565b816116ac91906129c9565b90505b5f8160ff16116116bf575f6116c1565b805b856116cc919061292d565b9450505b60038160ff16101580156117295750866001846116ed919061282a565b815181106116fe576116fd612b3c565b5b602002602001015160ff1686848151811061171c5761171b612b3c565b5b602002602001015160ff16145b15611a3e575f60028261173c91906129c9565b905060036117fd600d6040518060c00160405290815f82015f9054906101000a900460ff1660ff1660ff1681526020015f820160019054906101000a900460ff1660ff1660ff1681526020015f820160029054906101000a900460ff1660ff1660ff1681526020015f820160039054906101000a900460ff1660ff1660ff1681526020015f820160049054906101000a900460ff1660ff1660ff1681526020015f820160059054906101000a900460ff1660ff1660ff168152505086611eec565b60ff1610158015611847575087848151811061181c5761181b612b3c565b5b602002602001015160ff1687858151811061183a57611839612b3c565b5b602002602001015160ff16145b156118675760028361185991906129c9565b8161186491906129c9565b90505b6003611932600d6040518060c00160405290815f82015f9054906101000a900460ff1660ff1660ff1681526020015f820160019054906101000a900460ff1660ff1660ff1681526020015f820160029054906101000a900460ff1660ff1660ff1681526020015f820160039054906101000a900460ff1660ff1660ff1681526020015f820160049054906101000a900460ff1660ff1660ff1681526020015f820160059054906101000a900460ff1660ff1660ff168152505060018761192d919061282a565b611eec565b60ff1610611a1d576002611a05600d6040518060c00160405290815f82015f9054906101000a900460ff1660ff1660ff1681526020015f820160019054906101000a900460ff1660ff1660ff1681526020015f820160029054906101000a900460ff1660ff1660ff1681526020015f820160039054906101000a900460ff1660ff1660ff1681526020015f820160049054906101000a900460ff1660ff1660ff1681526020015f820160059054906101000a900460ff1660ff1660ff1681525050600187611a00919061282a565b611eec565b611a0f91906129c9565b81611a1a91906129c9565b90505b5f8160ff1611611a2d575f611a2f565b805b86611a3a919061292d565b9550505b505080806001019150506111d9565b506005600201548260ff1610611a6c575f600560020181905550611a8b565b8160ff1660056002015f828254611a839190612b69565b925050819055505b6009600201548160ff1610611aa9575f600960020181905550611ac8565b8060ff1660096002015f828254611ac09190612b69565b925050819055505b5f6005600201541480611adf57505f600960020154145b80611aeb57505f600154145b15611b2757611af8611f6d565b600160045f6101000a81548160ff02191690836001811115611b1d57611b1c61267b565b5b0217905550611d33565b426002819055506040518060c001604052805f60ff1681526020015f60ff1681526020015f60ff1681526020015f60ff1681526020015f60ff1681526020015f60ff16815250600d5f820151815f015f6101000a81548160ff021916908360ff1602179055506020820151815f0160016101000a81548160ff021916908360ff1602179055506040820151815f0160026101000a81548160ff021916908360ff1602179055506060820151815f0160036101000a81548160ff021916908360ff1602179055506080820151815f0160046101000a81548160ff021916908360ff16021790555060a0820151815f0160056101000a81548160ff021916908360ff1602179055509050506040518060c001604052805f60ff1681526020015f60ff1681526020015f60ff1681526020015f60ff1681526020015f60ff1681526020015f60ff16815250600e5f820151815f015f6101000a81548160ff021916908360ff1602179055506020820151815f0160016101000a81548160ff021916908360ff1602179055506040820151815f0160026101000a81548160ff021916908360ff1602179055506060820151815f0160036101000a81548160ff021916908360ff1602179055506080820151815f0160046101000a81548160ff021916908360ff16021790555060a0820151815f0160056101000a81548160ff021916908360ff1602179055509050505b50505050565b600e805f015f9054906101000a900460ff1690805f0160019054906101000a900460ff1690805f0160029054906101000a900460ff1690805f0160039054906101000a900460ff1690805f0160049054906101000a900460ff1690805f0160059054906101000a900460ff16905086565b5f5f9054906101000a900473ffffffffffffffffffffffffffffffffffffffff1681565b60045f9054906101000a900460ff1681565b6005805f015f9054906101000a900473ffffffffffffffffffffffffffffffffffffffff1690806001018054611e1590612a2a565b80601f0160208091040260200160405190810160405280929190818152602001828054611e4190612a2a565b8015611e8c5780601f10611e6357610100808354040283529160200191611e8c565b820191905f5260205f20905b815481529060010190602001808311611e6f57829003601f168201915b505050505090806002015490806003015f9054906101000a900460ff16908060030160019054906101000a900460ff16908060030160029054906101000a900460ff16905086565b600f5f9054906101000a900460ff1681565b60035481565b5f5f8203611eff57825f01519050611f67565b60018203611f135782602001519050611f67565b60028203611f275782604001519050611f67565b60038203611f3b5782606001519050611f67565b60048203611f4f5782608001519050611f67565b60058203611f63578260a001519050611f67565b5f90505b92915050565b60096002015460056002015403612054575f5f5f9054906101000a900473ffffffffffffffffffffffffffffffffffffffff1673ffffffffffffffffffffffffffffffffffffffff166702c68af0bb140000604051611fcb90612bc9565b5f6040518083038185875af1925050503d805f8114612005576040519150601f19603f3d011682016040523d82523d5f602084013e61200a565b606091505b505090508061204e576040517f08c379a000000000000000000000000000000000000000000000000000000000815260040161204590612c27565b60405180910390fd5b506123c8565b600960020154600560020154101561220f575f60095f015f9054906101000a900473ffffffffffffffffffffffffffffffffffffffff1673ffffffffffffffffffffffffffffffffffffffff16670214e8348c4f00006040516120b690612bc9565b5f6040518083038185875af1925050503d805f81146120f0576040519150601f19603f3d011682016040523d82523d5f602084013e6120f5565b606091505b5050905080612139576040517f08c379a000000000000000000000000000000000000000000000000000000000815260040161213090612c27565b60405180910390fd5b5f5f5f9054906101000a900473ffffffffffffffffffffffffffffffffffffffff1673ffffffffffffffffffffffffffffffffffffffff1666b1a2bc2ec5000060405161218590612bc9565b5f6040518083038185875af1925050503d805f81146121bf576040519150601f19603f3d011682016040523d82523d5f602084013e6121c4565b606091505b5050905080612208576040517f08c379a00000000000000000000000000000000000000000000000000000000081526004016121ff90612c27565b60405180910390fd5b50506123c7565b60056002015460096002015410156123c6575f60055f015f9054906101000a900473ffffffffffffffffffffffffffffffffffffffff1673ffffffffffffffffffffffffffffffffffffffff16670214e8348c4f000060405161227190612bc9565b5f6040518083038185875af1925050503d805f81146122ab576040519150601f19603f3d011682016040523d82523d5f602084013e6122b0565b606091505b50509050806122f4576040517f08c379a00000000000000000000000000000000000000000000000000000000081526004016122eb90612c27565b60405180910390fd5b5f5f5f9054906101000a900473ffffffffffffffffffffffffffffffffffffffff1673ffffffffffffffffffffffffffffffffffffffff1666b1a2bc2ec5000060405161234090612bc9565b5f6040518083038185875af1925050503d805f811461237a576040519150601f19603f3d011682016040523d82523d5f602084013e61237f565b606091505b50509050806123c3576040517f08c379a00000000000000000000000000000000000000000000000000000000081526004016123ba90612c27565b60405180910390fd5b50505b5b5b565b5f8115159050919050565b6123de816123ca565b82525050565b5f6020820190506123f75f8301846123d5565b92915050565b5f60ff82169050919050565b612412816123fd565b82525050565b5f60c08201905061242b5f830189612409565b6124386020830188612409565b6124456040830187612409565b6124526060830186612409565b61245f6080830185612409565b61246c60a0830184612409565b979650505050505050565b5f5ffd5b612484816123fd565b811461248e575f5ffd5b50565b5f8135905061249f8161247b565b92915050565b5f5f5f5f5f60a086880312156124be576124bd612477565b5b5f6124cb88828901612491565b95505060206124dc88828901612491565b94505060406124ed88828901612491565b93505060606124fe88828901612491565b925050608061250f88828901612491565b9150509295509295909350565b5f819050919050565b61252e8161251c565b82525050565b5f6020820190506125475f830184612525565b92915050565b5f73ffffffffffffffffffffffffffffffffffffffff82169050919050565b5f6125768261254d565b9050919050565b6125868161256c565b82525050565b5f81519050919050565b5f82825260208201905092915050565b8281835e5f83830152505050565b5f601f19601f8301169050919050565b5f6125ce8261258c565b6125d88185612596565b93506125e88185602086016125a6565b6125f1816125b4565b840191505092915050565b5f60c08201905061260f5f83018961257d565b818103602083015261262181886125c4565b90506126306040830187612525565b61263d6060830186612409565b61264a6080830185612409565b61265760a0830184612409565b979650505050505050565b5f6020820190506126755f83018461257d565b92915050565b7f4e487b71000000000000000000000000000000000000000000000000000000005f52602160045260245ffd5b600281106126b9576126b861267b565b5b50565b5f8190506126c9826126a8565b919050565b5f6126d8826126bc565b9050919050565b6126e8816126ce565b82525050565b5f6020820190506127015f8301846126df565b92915050565b7f47616d6520697320456e646564000000000000000000000000000000000000005f82015250565b5f61273b600d83612596565b915061274682612707565b602082019050919050565b5f6020820190508181035f8301526127688161272f565b9050919050565b7f4f6e6c79207265676973746572656420706c61796572732063616e20706572665f8201527f6f726d206d6f7665730000000000000000000000000000000000000000000000602082015250565b5f6127c9602983612596565b91506127d48261276f565b604082019050919050565b5f6020820190508181035f8301526127f6816127bd565b9050919050565b7f4e487b71000000000000000000000000000000000000000000000000000000005f52601160045260245ffd5b5f6128348261251c565b915061283f8361251c565b9250828201905080821115612857576128566127fd565b5b92915050565b7f4d6f76652073656c656374696f6e20706572696f642068617320656e646564005f82015250565b5f612891601f83612596565b915061289c8261285d565b602082019050919050565b5f6020820190508181035f8301526128be81612885565b9050919050565b7f47616d6520686173206e6f7420737461727465642079657400000000000000005f82015250565b5f6128f9601883612596565b9150612904826128c5565b602082019050919050565b5f6020820190508181035f830152612926816128ed565b9050919050565b5f612937826123fd565b9150612942836123fd565b9250828201905060ff81111561295b5761295a6127fd565b5b92915050565b7f45786365656465642061747461636b206c696d697473000000000000000000005f82015250565b5f612995601683612596565b91506129a082612961565b602082019050919050565b5f6020820190508181035f8301526129c281612989565b9050919050565b5f6129d3826123fd565b91506129de836123fd565b9250828203905060ff8111156129f7576129f66127fd565b5b92915050565b7f4e487b71000000000000000000000000000000000000000000000000000000005f52602260045260245ffd5b5f6002820490506001821680612a4157607f821691505b602082108103612a5457612a536129fd565b5b50919050565b7f4d6f76652073656c656374696f6e20706572696f64206e6f7420656e646564205f8201527f7965740000000000000000000000000000000000000000000000000000000000602082015250565b5f612ab4602383612596565b9150612abf82612a5a565b604082019050919050565b5f6020820190508181035f830152612ae181612aa8565b9050919050565b5f612af28261251c565b91505f8203612b0457612b036127fd565b5b600182039050919050565b7f4e487b71000000000000000000000000000000000000000000000000000000005f52604160045260245ffd5b7f4e487b71000000000000000000000000000000000000000000000000000000005f52603260045260245ffd5b5f612b738261251c565b9150612b7e8361251c565b9250828203905081811115612b9657612b956127fd565b5b92915050565b5f81905092915050565b50565b5f612bb45f83612b9c565b9150612bbf82612ba6565b5f82019050919050565b5f612bd382612ba9565b9150819050919050565b7f5472616e73666572206661696c656400000000000000000000000000000000005f82015250565b5f612c11600f83612596565b9150612c1c82612bdd565b602082019050919050565b5f6020820190508181035f830152612c3e81612c05565b905091905056fea2646970667358221220dc5b99e1f44420e35dd9a0ddb0f1343b40db1a771a612114980e836ce8bbdb6164736f6c634300081c0033","linkReferences":{}},"methodIdentifiers":{"P1moves()":"23003af8","P2moves()":"8c219708","PerformMoves(uint8,uint8,uint8,uint8,uint8)":"2da112e9","calculateResult()":"6e008b35","gameCount()":"4d1975b4","gameState()":"d1f9c24d","moveSelectionDuration()":"f39b734c","moveSelectionStartTime()":"49426d32","owner()":"8da5cb5b","player1()":"d30895e4","player1Moved()":"e95cc913","player2()":"59a5f12d","player2Moved()":"0bdd347c"},"id":1}